{
  "contractName": "AnswerIT",
  "abi": [
    {
      "constant": true,
      "inputs": [
        {
          "name": "",
          "type": "address"
        }
      ],
      "name": "OldMember",
      "outputs": [
        {
          "name": "",
          "type": "bool"
        }
      ],
      "payable": false,
      "stateMutability": "view",
      "type": "function"
    },
    {
      "constant": true,
      "inputs": [
        {
          "name": "",
          "type": "uint256"
        }
      ],
      "name": "Messages",
      "outputs": [
        {
          "name": "owner",
          "type": "address"
        },
        {
          "name": "id",
          "type": "uint256"
        },
        {
          "name": "data",
          "type": "string"
        },
        {
          "name": "ans",
          "type": "string"
        },
        {
          "name": "username",
          "type": "string"
        },
        {
          "name": "ansCount",
          "type": "uint256"
        },
        {
          "name": "selected_ans",
          "type": "bool"
        },
        {
          "name": "total_incentives",
          "type": "uint256"
        }
      ],
      "payable": false,
      "stateMutability": "view",
      "type": "function"
    },
    {
      "constant": true,
      "inputs": [],
      "name": "msgCount",
      "outputs": [
        {
          "name": "",
          "type": "uint256"
        }
      ],
      "payable": false,
      "stateMutability": "view",
      "type": "function"
    },
    {
      "inputs": [],
      "payable": false,
      "stateMutability": "nonpayable",
      "type": "constructor"
    },
    {
      "anonymous": false,
      "inputs": [],
      "name": "NewPost",
      "type": "event"
    },
    {
      "constant": false,
      "inputs": [
        {
          "name": "_name",
          "type": "string"
        },
        {
          "name": "keyphrase",
          "type": "string"
        }
      ],
      "name": "register",
      "outputs": [],
      "payable": false,
      "stateMutability": "nonpayable",
      "type": "function"
    },
    {
      "constant": false,
      "inputs": [
        {
          "name": "keyphrase",
          "type": "string"
        }
      ],
      "name": "login",
      "outputs": [],
      "payable": false,
      "stateMutability": "nonpayable",
      "type": "function"
    },
    {
      "constant": false,
      "inputs": [
        {
          "name": "question",
          "type": "string"
        }
      ],
      "name": "PostQuestion",
      "outputs": [],
      "payable": false,
      "stateMutability": "nonpayable",
      "type": "function"
    },
    {
      "constant": false,
      "inputs": [
        {
          "name": "Count",
          "type": "uint256"
        },
        {
          "name": "ans",
          "type": "string"
        }
      ],
      "name": "PostAnswer",
      "outputs": [],
      "payable": false,
      "stateMutability": "nonpayable",
      "type": "function"
    },
    {
      "constant": true,
      "inputs": [
        {
          "name": "Count",
          "type": "uint256"
        },
        {
          "name": "ans_id",
          "type": "uint256"
        }
      ],
      "name": "GetOwnerAddress",
      "outputs": [
        {
          "name": "",
          "type": "address"
        }
      ],
      "payable": false,
      "stateMutability": "view",
      "type": "function"
    },
    {
      "constant": true,
      "inputs": [
        {
          "name": "Count",
          "type": "uint256"
        },
        {
          "name": "ans_id",
          "type": "uint256"
        }
      ],
      "name": "IterateAnswers",
      "outputs": [
        {
          "name": "",
          "type": "string"
        }
      ],
      "payable": false,
      "stateMutability": "view",
      "type": "function"
    },
    {
      "constant": true,
      "inputs": [
        {
          "name": "Count",
          "type": "uint256"
        },
        {
          "name": "ans_id",
          "type": "uint256"
        }
      ],
      "name": "GetUpvoteValue",
      "outputs": [
        {
          "name": "",
          "type": "uint256"
        }
      ],
      "payable": false,
      "stateMutability": "view",
      "type": "function"
    },
    {
      "constant": true,
      "inputs": [
        {
          "name": "Count",
          "type": "uint256"
        },
        {
          "name": "ans_id",
          "type": "uint256"
        }
      ],
      "name": "GetUpvoteCount",
      "outputs": [
        {
          "name": "",
          "type": "uint256"
        }
      ],
      "payable": false,
      "stateMutability": "view",
      "type": "function"
    },
    {
      "constant": false,
      "inputs": [
        {
          "name": "Count",
          "type": "uint256"
        },
        {
          "name": "ans_id",
          "type": "uint256"
        }
      ],
      "name": "UpvoteAnswer",
      "outputs": [],
      "payable": false,
      "stateMutability": "nonpayable",
      "type": "function"
    },
    {
      "constant": false,
      "inputs": [],
      "name": "logout",
      "outputs": [],
      "payable": false,
      "stateMutability": "nonpayable",
      "type": "function"
    }
  ],
  "bytecode": "0x608060405234801561001057600080fd5b506000600481905550611d2c806100286000396000f3006080604052600436106100c5576000357c0100000000000000000000000000000000000000000000000000000000900463ffffffff1680630ee6bb95146100ca5780631f3c99c31461017a5780633a7d280c146101915780633ffbd47f146101fa57806342f96b48146102a957806344709168146102f457806384d4a3bf1461036757806385a4d02e146103c25780638f1a281014610593578063a60f4f8d146105be578063a7853089146105f5578063c94099e31461065e578063f07ad127146106a9575b600080fd5b3480156100d657600080fd5b506100ff6004803603810190808035906020019092919080359060200190929190505050610720565b6040518080602001828103825283818151815260200191508051906020019080838360005b8381101561013f578082015181840152602081019050610124565b50505050905090810190601f16801561016c5780820380516001836020036101000a031916815260200191505b509250505060405180910390f35b34801561018657600080fd5b5061018f6107ed565b005b34801561019d57600080fd5b506101f8600480360381019080803590602001908201803590602001908080601f0160208091040260200160405190810160405280939291908181526020018383808284378201915050505050509192919290505050610847565b005b34801561020657600080fd5b506102a7600480360381019080803590602001908201803590602001908080601f0160208091040260200160405190810160405280939291908181526020018383808284378201915050505050509192919290803590602001908201803590602001908080601f0160208091040260200160405190810160405280939291908181526020018383808284378201915050505050509192919290505050610ca6565b005b3480156102b557600080fd5b506102de6004803603810190808035906020019092919080359060200190929190505050610e30565b6040518082815260200191505060405180910390f35b34801561030057600080fd5b5061036560048036038101908080359060200190929190803590602001908201803590602001908080601f0160208091040260200160405190810160405280939291908181526020018383808284378201915050505050509192919290505050610e65565b005b34801561037357600080fd5b506103a8600480360381019080803573ffffffffffffffffffffffffffffffffffffffff1690602001909291905050506110fb565b604051808215151515815260200191505060405180910390f35b3480156103ce57600080fd5b506103ed6004803603810190808035906020019092919050505061111b565b604051808973ffffffffffffffffffffffffffffffffffffffff1673ffffffffffffffffffffffffffffffffffffffff1681526020018881526020018060200180602001806020018781526020018615151515815260200185815260200184810384528a818151815260200191508051906020019080838360005b83811015610483578082015181840152602081019050610468565b50505050905090810190601f1680156104b05780820380516001836020036101000a031916815260200191505b50848103835289818151815260200191508051906020019080838360005b838110156104e95780820151818401526020810190506104ce565b50505050905090810190601f1680156105165780820380516001836020036101000a031916815260200191505b50848103825288818151815260200191508051906020019080838360005b8381101561054f578082015181840152602081019050610534565b50505050905090810190601f16801561057c5780820380516001836020036101000a031916815260200191505b509b50505050505050505050505060405180910390f35b34801561059f57600080fd5b506105a8611358565b6040518082815260200191505060405180910390f35b3480156105ca57600080fd5b506105f3600480360381019080803590602001909291908035906020019092919050505061135e565b005b34801561060157600080fd5b5061065c600480360381019080803590602001908201803590602001908080601f0160208091040260200160405190810160405280939291908181526020018383808284378201915050505050509192919290505050611521565b005b34801561066a57600080fd5b506106936004803603810190808035906020019092919080359060200190929190505050611798565b6040518082815260200191505060405180910390f35b3480156106b557600080fd5b506106de60048036038101908080359060200190929190803590602001909291905050506117cd565b604051808273ffffffffffffffffffffffffffffffffffffffff1673ffffffffffffffffffffffffffffffffffffffff16815260200191505060405180910390f35b60606005600084815260200190815260200160002060080160008381526020019081526020016000206002018054600181600116156101000203166002900480601f0160208091040260200160405190810160405280929190818152602001828054600181600116156101000203166002900480156107e05780601f106107b5576101008083540402835291602001916107e0565b820191906000526020600020905b8154815290600101906020018083116107c357829003601f168201915b5050505050905092915050565b6000600360003373ffffffffffffffffffffffffffffffffffffffff1673ffffffffffffffffffffffffffffffffffffffff16815260200190815260200160002060006101000a81548160ff021916908315150217905550565b606080600080606080600080600260003373ffffffffffffffffffffffffffffffffffffffff1673ffffffffffffffffffffffffffffffffffffffff16815260200190815260200160002060010160009054906101000a900473ffffffffffffffffffffffffffffffffffffffff1673ffffffffffffffffffffffffffffffffffffffff163373ffffffffffffffffffffffffffffffffffffffff161415156108ec57fe5b88975060146040519080825280601f01601f1916602001820160405280156109235781602001602082028038833980820191505090505b509650339550600094505b60148510156109cf578460130360080260020a8673ffffffffffffffffffffffffffffffffffffffff1681151561096157fe5b047f010000000000000000000000000000000000000000000000000000000000000002878681518110151561099257fe5b9060200101907effffffffffffffffffffffffffffffffffffffffffffffffffffffffffffff1916908160001a905350848060010195505061092e565b86518851016040519080825280601f01601f191660200182016040528015610a065781602001602082028038833980820191505090505b50935083925060009150600094505b8751851015610ace578785806001019650815181101515610a3257fe5b9060200101517f010000000000000000000000000000000000000000000000000000000000000090047f0100000000000000000000000000000000000000000000000000000000000000028383806001019450815181101515610a9157fe5b9060200101907effffffffffffffffffffffffffffffffffffffffffffffffffffffffffffff1916908160001a9053508480600101955050610a15565b600094505b8651851015610b8c578685806001019650815181101515610af057fe5b9060200101517f010000000000000000000000000000000000000000000000000000000000000090047f0100000000000000000000000000000000000000000000000000000000000000028383806001019450815181101515610b4f57fe5b9060200101907effffffffffffffffffffffffffffffffffffffffffffffffffffffffffffff1916908160001a9053508480600101955050610ad3565b826040518082805190602001908083835b602083101515610bc25780518252602082019150602081019050602083039250610b9d565b6001836020036101000a038019825116818451168082178552505050505050905001915050604051809103902090508060001916600160003373ffffffffffffffffffffffffffffffffffffffff1673ffffffffffffffffffffffffffffffffffffffff1681526020019081526020016000205460001916141515610c4357fe5b6001600360003373ffffffffffffffffffffffffffffffffffffffff1673ffffffffffffffffffffffffffffffffffffffff16815260200190815260200160002060006101000a81548160ff021916908315150217905550505050505050505050565b6000803373ffffffffffffffffffffffffffffffffffffffff1673ffffffffffffffffffffffffffffffffffffffff16815260200190815260200160002060009054906101000a900460ff16151515610cfb57fe5b60408051908101604052808381526020013373ffffffffffffffffffffffffffffffffffffffff16815250600260003373ffffffffffffffffffffffffffffffffffffffff1673ffffffffffffffffffffffffffffffffffffffff1681526020019081526020016000206000820151816000019080519060200190610d81929190611bdb565b5060208201518160010160006101000a81548173ffffffffffffffffffffffffffffffffffffffff021916908373ffffffffffffffffffffffffffffffffffffffff160217905550905050610dd581611822565b60016000803373ffffffffffffffffffffffffffffffffffffffff1673ffffffffffffffffffffffffffffffffffffffff16815260200190815260200160002060006101000a81548160ff0219169083151502179055505050565b600060056000848152602001908152602001600020600801600083815260200190815260200160002060040154905092915050565b80600560008481526020019081526020016000206003019080519060200190610e8f929190611c5b565b5060c0604051908101604052803373ffffffffffffffffffffffffffffffffffffffff16815260200160056000858152602001908152602001600020600501548152602001828152602001600260003373ffffffffffffffffffffffffffffffffffffffff1673ffffffffffffffffffffffffffffffffffffffff1681526020019081526020016000206000018054600181600116156101000203166002900480601f016020809104026020016040519081016040528092919081815260200182805460018160011615610100020316600290048015610fb05780601f10610f8557610100808354040283529160200191610fb0565b820191906000526020600020905b815481529060010190602001808311610f9357829003601f168201915b5050505050815260200160008152602001600a8152506005600084815260200190815260200160002060080160006005600086815260200190815260200160002060050154815260200190815260200160002060008201518160000160006101000a81548173ffffffffffffffffffffffffffffffffffffffff021916908373ffffffffffffffffffffffffffffffffffffffff160217905550602082015181600101556040820151816002019080519060200190611070929190611bdb565b50606082015181600301908051906020019061108d929190611bdb565b506080820151816004015560a0820151816005015590505060056000838152602001908152602001600020600501600081548092919060010191905055507f2fd62d00186ef15df84fb6fd7cecdbb4bcfd6c0aed7264f1361db1716db84b7f60405160405180910390a15050565b60006020528060005260406000206000915054906101000a900460ff1681565b60056020528060005260406000206000915090508060000160009054906101000a900473ffffffffffffffffffffffffffffffffffffffff1690806001015490806002018054600181600116156101000203166002900480601f0160208091040260200160405190810160405280929190818152602001828054600181600116156101000203166002900480156111f35780601f106111c8576101008083540402835291602001916111f3565b820191906000526020600020905b8154815290600101906020018083116111d657829003601f168201915b505050505090806003018054600181600116156101000203166002900480601f0160208091040260200160405190810160405280929190818152602001828054600181600116156101000203166002900480156112915780601f1061126657610100808354040283529160200191611291565b820191906000526020600020905b81548152906001019060200180831161127457829003601f168201915b505050505090806004018054600181600116156101000203166002900480601f01602080910402602001604051908101604052809291908181526020018280546001816001161561010002031660029004801561132f5780601f106113045761010080835404028352916020019161132f565b820191906000526020600020905b81548152906001019060200180831161131257829003601f168201915b5050505050908060050154908060060160009054906101000a900460ff16908060070154905088565b60045481565b600560008381526020019081526020016000206008016000828152602001908152602001600020600401600081548092919060010191905055506005600083815260200190815260200160002060060160009054906101000a900460ff16151561151d5760026005600084815260200190815260200160002060070154016005600084815260200190815260200160002060070181905550600a60056000848152602001908152602001600020600801600083815260200190815260200160002060040154141561151c5760056000838152602001908152602001600020600801600082815260200190815260200160002060000160009054906101000a900473ffffffffffffffffffffffffffffffffffffffff1673ffffffffffffffffffffffffffffffffffffffff166108fc60056000858152602001908152602001600020600701549081150290604051600060405180830381858888f193505050501580156114cf573d6000803e3d6000fd5b506000600560008481526020019081526020016000206007018190555060016005600084815260200190815260200160002060060160006101000a81548160ff0219169083151502179055505b5b5050565b610100604051908101604052803373ffffffffffffffffffffffffffffffffffffffff168152602001600454815260200182815260200160206040519081016040528060008152508152602001600260003373ffffffffffffffffffffffffffffffffffffffff1673ffffffffffffffffffffffffffffffffffffffff1681526020019081526020016000206000018054600181600116156101000203166002900480601f0160208091040260200160405190810160405280929190818152602001828054600181600116156101000203166002900480156116445780601f1061161957610100808354040283529160200191611644565b820191906000526020600020905b81548152906001019060200180831161162757829003601f168201915b5050505050815260200160008152602001600015158152602001600081525060056000600454815260200190815260200160002060008201518160000160006101000a81548173ffffffffffffffffffffffffffffffffffffffff021916908373ffffffffffffffffffffffffffffffffffffffff1602179055506020820151816001015560408201518160020190805190602001906116e5929190611bdb565b506060820151816003019080519060200190611702929190611bdb565b50608082015181600401908051906020019061171f929190611bdb565b5060a0820151816005015560c08201518160060160006101000a81548160ff02191690831515021790555060e082015181600701559050506004600081548092919060010191905055507f2fd62d00186ef15df84fb6fd7cecdbb4bcfd6c0aed7264f1361db1716db84b7f60405160405180910390a150565b600060056000848152602001908152602001600020600801600083815260200190815260200160002060050154905092915050565b600060056000848152602001908152602001600020600801600083815260200190815260200160002060000160009054906101000a900473ffffffffffffffffffffffffffffffffffffffff16905092915050565b6060806000806060806000806000803373ffffffffffffffffffffffffffffffffffffffff1673ffffffffffffffffffffffffffffffffffffffff16815260200190815260200160002060009054906101000a900460ff1615151561188357fe5b88975060146040519080825280601f01601f1916602001820160405280156118ba5781602001602082028038833980820191505090505b509650339550600094505b6014851015611966578460130360080260020a8673ffffffffffffffffffffffffffffffffffffffff168115156118f857fe5b047f010000000000000000000000000000000000000000000000000000000000000002878681518110151561192957fe5b9060200101907effffffffffffffffffffffffffffffffffffffffffffffffffffffffffffff1916908160001a90535084806001019550506118c5565b86518851016040519080825280601f01601f19166020018201604052801561199d5781602001602082028038833980820191505090505b50935083925060009150600094505b8751851015611a655787858060010196508151811015156119c957fe5b9060200101517f010000000000000000000000000000000000000000000000000000000000000090047f0100000000000000000000000000000000000000000000000000000000000000028383806001019450815181101515611a2857fe5b9060200101907effffffffffffffffffffffffffffffffffffffffffffffffffffffffffffff1916908160001a90535084806001019550506119ac565b600094505b8651851015611b23578685806001019650815181101515611a8757fe5b9060200101517f010000000000000000000000000000000000000000000000000000000000000090047f0100000000000000000000000000000000000000000000000000000000000000028383806001019450815181101515611ae657fe5b9060200101907effffffffffffffffffffffffffffffffffffffffffffffffffffffffffffff1916908160001a9053508480600101955050611a6a565b826040518082805190602001908083835b602083101515611b595780518252602082019150602081019050602083039250611b34565b6001836020036101000a0380198251168184511680821785525050505050509050019150506040518091039020905080600160003373ffffffffffffffffffffffffffffffffffffffff1673ffffffffffffffffffffffffffffffffffffffff1681526020019081526020016000208160001916905550505050505050505050565b828054600181600116156101000203166002900490600052602060002090601f016020900481019282601f10611c1c57805160ff1916838001178555611c4a565b82800160010185558215611c4a579182015b82811115611c49578251825591602001919060010190611c2e565b5b509050611c579190611cdb565b5090565b828054600181600116156101000203166002900490600052602060002090601f016020900481019282601f10611c9c57805160ff1916838001178555611cca565b82800160010185558215611cca579182015b82811115611cc9578251825591602001919060010190611cae565b5b509050611cd79190611cdb565b5090565b611cfd91905b80821115611cf9576000816000905550600101611ce1565b5090565b905600a165627a7a7230582036b1a3f23efef8e08ffb06b9bd36309a87b154384a0225cff15fc97b972272ed0029",
  "source": "pragma solidity ^0.4.17;\n\ncontract AnswerIT\n{\n\n\n    function AnswerIT() public\n    {\n            msgCount=0;\n\n    }\n\n    /*\n    # ------------------------------------------------------------------------------\n    # | Memeber Registration and Logging                                           |\n    # ------------------------------------------------------------------------------\n    */\n\n\n    struct member\n    {\n        string  name;\n        address  addr;\n\n    }\n\n    mapping (address => bool) public OldMember;\n    mapping (address => bytes32) private _key_value;\n    mapping (address => member) private _memberDetails;\n    mapping (address => bool) private _logged;\n\n    modifier notRegistered()\n    {\n        assert(!OldMember[msg.sender]);\n        _;\n\n    }\n\n\n    function make_secure(string _pass) internal notRegistered\n    {\n        bytes memory _arg1 =  bytes(_pass);\n        bytes memory _arg2 =  new bytes(20);\n        address x=msg.sender;\n        for (uint i = 0; i < 20; i++)\n            _arg2[i] = byte(uint8(uint(x) / (2**(8*(19 - i)))));\n        string memory _temps = new string( _arg1.length + _arg2.length );\n        bytes memory _target_s = bytes(_temps);\n        uint k=0;\n        for(i=0;i<_arg1.length;i++) _target_s[k++]=_arg1[i++];\n        for(i=0;i<_arg2.length;i++) _target_s[k++]=_arg2[i++];\n        bytes32 _sha256;\n        _sha256=keccak256(_target_s);\n\n        _key_value[msg.sender]=_sha256;\n    }\n\n    function register(string _name,string keyphrase) public notRegistered\n    {\n        _memberDetails[msg.sender] = member(_name,msg.sender);\n        make_secure(keyphrase);\n        OldMember[msg.sender]=true;\n    }\n\n    function login(string keyphrase) public\n    {\n        assert(msg.sender== _memberDetails[msg.sender].addr);\n\n        bytes memory _arg1 =  bytes(keyphrase);\n        bytes memory _arg2 =  new bytes(20);\n        address x=msg.sender;\n        for (uint i = 0; i < 20; i++)\n            _arg2[i] = byte(uint8(uint(x) / (2**(8*(19 - i)))));\n        string memory _temps = new string( _arg1.length + _arg2.length );\n        bytes memory _target_s = bytes(_temps);\n        uint k=0;\n        for(i=0;i<_arg1.length;i++) _target_s[k++]=_arg1[i++];\n        for(i=0;i<_arg2.length;i++) _target_s[k++]=_arg2[i++];\n        bytes32 _sha256;\n        _sha256=keccak256(_target_s);\n\n        assert(_key_value[msg.sender] == _sha256);\n\n        _logged[msg.sender] = true;\n\n    }\n\n\n\n    /*\n    # ------------------------------------------------------------------------------\n    # | Posting Questions and Answers                                                                |\n    # ------------------------------------------------------------------------------\n    */\n\n\n\n    //track of counter for Questions\n    uint public msgCount;\n\n    //Model of a question\n    struct Question\n    {\n        address owner;   \n        uint id; \n        string data; \n        string ans; \n        string username; \n        uint ansCount; \n        //Holds the ans as a map to the counter.\n        bool selected_ans;\n        uint total_incentives; \n        mapping (uint => Answer ) ansMap; \n\n    }\n\n\n    //Model of a Answer\n    struct Answer\n    {\n        address owner;\n        uint id;\n        string ans;\n        string username;\n        uint upvoteCount;\n        uint answerValue;\n\n    }\n\n    //Holds the post as a map to the counter.\n    mapping (uint => Question ) public Messages;\n\n\n    \n    event NewPost();\n\n    modifier loggedMember()\n    {\n        assert(OldMember[msg.sender] && _logged[msg.sender]);\n        _;\n    }\n\n    //Question creation\n    function PostQuestion(string question) public\n    {   \n        Messages[msgCount] = Question(msg.sender,msgCount, question, \"\",_memberDetails[msg.sender].name,0, false, 0);\n        //Increment the msg counter\n        msgCount++;\n        NewPost();\n    }\n\n\n    //Message creation\n    function PostAnswer(uint Count, string ans) public\n    {   \n        Messages[Count].ans = ans;\n       \n        Messages[Count].ansMap[Messages[Count].ansCount] = Answer(msg.sender, Messages[Count].ansCount, ans,_memberDetails[msg.sender].name,0,10);\n        Messages[Count].ansCount++;\n\n        NewPost();\n    }\n\n    function GetOwnerAddress(uint Count, uint ans_id) public constant returns (address)\n    {   \n        return Messages[Count].ansMap[ans_id].owner;\n    }\n\n    function IterateAnswers(uint Count, uint ans_id) public constant returns (string)\n    {   \n        return Messages[Count].ansMap[ans_id].ans;\n    }\n\n\n    function GetUpvoteValue(uint Count, uint ans_id) public constant returns (uint)\n    {   \n        return Messages[Count].ansMap[ans_id].answerValue;\n    }\n\n    function GetUpvoteCount(uint Count, uint ans_id) public constant returns (uint)\n    {   \n        return Messages[Count].ansMap[ans_id].upvoteCount;\n    }\n\n    function UpvoteAnswer(uint Count, uint ans_id) public\n    {\n       Messages[Count].ansMap[ans_id].upvoteCount++;\n\n        if (!Messages[Count].selected_ans){\n            Messages[Count].total_incentives = Messages[Count].total_incentives + 2; \n\n            if (Messages[Count].ansMap[ans_id].upvoteCount == 10){\n                Messages[Count].ansMap[ans_id].owner.transfer(Messages[Count].total_incentives);\n                Messages[Count].total_incentives = 0;\n                Messages[Count].selected_ans = true;\n            }\n        }\n    }\n\n\n\n    \n    function logout() public\n    {\n        _logged[msg.sender] = false;\n\n    }\n\n\n}\n",
  "sourcePath": "/Users/shalini/Documents/SU_Courses/Sem3/CIS-600-Blockchain/Project/code/code/answeritapp/backend/contracts/AnswerIT.sol",
  "compiler": {
    "name": "solc",
    "version": "0.4.24+commit.e67f0147.Emscripten.clang"
  },
  "schemaVersion": "2.0.1",
  "updatedAt": "2018-12-12T16:12:39.963Z"
}